{
  "abi": [
    {
      "inputs": [],
      "stateMutability": "nonpayable",
      "type": "constructor"
    },
    {
      "inputs": [
        {
          "internalType": "uint256",
          "name": "ghoamount",
          "type": "uint256"
        },
        {
          "internalType": "int96",
          "name": "flowRate",
          "type": "int96"
        },
        {
          "internalType": "address",
          "name": "beneficiary",
          "type": "address"
        }
      ],
      "name": "createStream",
      "outputs": [],
      "stateMutability": "nonpayable",
      "type": "function"
    },
    {
      "inputs": [
        {
          "internalType": "address",
          "name": "beneficiary",
          "type": "address"
        }
      ],
      "name": "deleteStream",
      "outputs": [],
      "stateMutability": "nonpayable",
      "type": "function"
    },
    {
      "inputs": [
        {
          "internalType": "uint256",
          "name": "ghoAmount",
          "type": "uint256"
        },
        {
          "internalType": "int96",
          "name": "flowRate",
          "type": "int96"
        },
        {
          "internalType": "address",
          "name": "beneficiary",
          "type": "address"
        }
      ],
      "name": "ethToGhoStream",
      "outputs": [],
      "stateMutability": "payable",
      "type": "function"
    },
    {
      "inputs": [],
      "name": "getETHValueDollars",
      "outputs": [
        {
          "internalType": "int256",
          "name": "",
          "type": "int256"
        }
      ],
      "stateMutability": "view",
      "type": "function"
    },
    {
      "inputs": [
        {
          "internalType": "address",
          "name": "acc",
          "type": "address"
        }
      ],
      "name": "getInfo",
      "outputs": [
        {
          "internalType": "uint256",
          "name": "",
          "type": "uint256"
        },
        {
          "internalType": "uint256",
          "name": "",
          "type": "uint256"
        },
        {
          "internalType": "uint256",
          "name": "",
          "type": "uint256"
        },
        {
          "internalType": "uint256",
          "name": "",
          "type": "uint256"
        }
      ],
      "stateMutability": "view",
      "type": "function"
    },
    {
      "inputs": [
        {
          "internalType": "address",
          "name": "acc",
          "type": "address"
        }
      ],
      "name": "getSuppliedTotalETH",
      "outputs": [
        {
          "internalType": "uint256",
          "name": "",
          "type": "uint256"
        }
      ],
      "stateMutability": "view",
      "type": "function"
    },
    {
      "inputs": [
        {
          "internalType": "address",
          "name": "acc",
          "type": "address"
        },
        {
          "internalType": "address",
          "name": "tokenAddress",
          "type": "address"
        }
      ],
      "name": "getSuppliedTotalTokens",
      "outputs": [
        {
          "internalType": "uint256",
          "name": "",
          "type": "uint256"
        }
      ],
      "stateMutability": "view",
      "type": "function"
    },
    {
      "inputs": [
        {
          "internalType": "address",
          "name": "tokenAddress",
          "type": "address"
        }
      ],
      "name": "getTokenValueDollars",
      "outputs": [
        {
          "internalType": "int256",
          "name": "",
          "type": "int256"
        }
      ],
      "stateMutability": "view",
      "type": "function"
    },
    {
      "inputs": [
        {
          "internalType": "address",
          "name": "acc",
          "type": "address"
        }
      ],
      "name": "getTotalGHODebt",
      "outputs": [
        {
          "internalType": "uint256",
          "name": "",
          "type": "uint256"
        }
      ],
      "stateMutability": "view",
      "type": "function"
    },
    {
      "inputs": [],
      "name": "repayAllGHO",
      "outputs": [],
      "stateMutability": "nonpayable",
      "type": "function"
    },
    {
      "inputs": [
        {
          "internalType": "uint256",
          "name": "amount",
          "type": "uint256"
        }
      ],
      "name": "repayGHO",
      "outputs": [],
      "stateMutability": "nonpayable",
      "type": "function"
    },
    {
      "inputs": [
        {
          "internalType": "address",
          "name": "",
          "type": "address"
        }
      ],
      "name": "senderToGhoFlow",
      "outputs": [
        {
          "internalType": "address",
          "name": "",
          "type": "address"
        }
      ],
      "stateMutability": "view",
      "type": "function"
    },
    {
      "inputs": [
        {
          "internalType": "address",
          "name": "",
          "type": "address"
        }
      ],
      "name": "tokenToAToken",
      "outputs": [
        {
          "internalType": "address",
          "name": "",
          "type": "address"
        }
      ],
      "stateMutability": "view",
      "type": "function"
    },
    {
      "inputs": [
        {
          "internalType": "address",
          "name": "tokenAddress",
          "type": "address"
        },
        {
          "internalType": "uint256",
          "name": "tokenAmount",
          "type": "uint256"
        },
        {
          "internalType": "uint256",
          "name": "ghoAmount",
          "type": "uint256"
        },
        {
          "internalType": "int96",
          "name": "flowRate",
          "type": "int96"
        },
        {
          "internalType": "address",
          "name": "beneficiary",
          "type": "address"
        }
      ],
      "name": "tokenToGhoStream",
      "outputs": [],
      "stateMutability": "nonpayable",
      "type": "function"
    },
    {
      "inputs": [
        {
          "internalType": "address",
          "name": "",
          "type": "address"
        }
      ],
      "name": "tokenToOracle",
      "outputs": [
        {
          "internalType": "address",
          "name": "",
          "type": "address"
        }
      ],
      "stateMutability": "view",
      "type": "function"
    },
    {
      "inputs": [
        {
          "internalType": "int96",
          "name": "flowRate",
          "type": "int96"
        },
        {
          "internalType": "address",
          "name": "beneficiary",
          "type": "address"
        }
      ],
      "name": "updateStream",
      "outputs": [],
      "stateMutability": "nonpayable",
      "type": "function"
    },
    {
      "inputs": [],
      "name": "withdrawAllETH",
      "outputs": [],
      "stateMutability": "nonpayable",
      "type": "function"
    },
    {
      "inputs": [
        {
          "internalType": "address",
          "name": "tokenAddress",
          "type": "address"
        }
      ],
      "name": "withdrawAllTokens",
      "outputs": [],
      "stateMutability": "nonpayable",
      "type": "function"
    },
    {
      "inputs": [
        {
          "internalType": "uint256",
          "name": "amount",
          "type": "uint256"
        }
      ],
      "name": "withdrawETH",
      "outputs": [],
      "stateMutability": "nonpayable",
      "type": "function"
    },
    {
      "inputs": [
        {
          "internalType": "address",
          "name": "tokenAddress",
          "type": "address"
        },
        {
          "internalType": "uint256",
          "name": "amount",
          "type": "uint256"
        }
      ],
      "name": "withdrawTokens",
      "outputs": [],
      "stateMutability": "nonpayable",
      "type": "function"
    }
  ],
  "bytecode": {
    "object": "0x6080604052600080546001600160a01b0319908116736ae43d3271ff6888e7fc43fd7321a503ff738951179091556001805482167367ae46ef043f7a4508bd1d6b94db6c33f091584417905560028054909116735b071b590a59395fe4025a0ccc1fcc931aac183017905534801561007657600080fd5b507fbfeeb2156b6a3c29032194f20ff74d3be180c34a1dddb274c46668ebed94a7cb80546001600160a01b03199081167329598b72eb5cebd806c5dcd549490fda35b13cd8179091557f60fb9afeb663d66307adbcfe46e1ae999caf8a84a08c5b1ca53ca93263681aed80548216736b8558764d3b7572136f17174cb9ab1ddc7e125917905560056020527f76184985fefd5194c46fde4c85ec30d3d0587fb63df5e0e307f1eb5dfa82caa780548216739af11c35c5d3ae182c0050438972aac4376f95161790557388541670e55cc00beefd87eb59edd1b7c511ac9a6000527fb9aa485850916cf2ea9936fe16bc41017d1464450d724b865142e42bf30ebc5d805490911673da678ef100c13504eddb8a228a1e8e4cb139f1891790556120f0806101a36000396000f3fe608060405260043610620001375760003560e01c806390386bbf11620000ad578063b9b44d30116200006c578063b9b44d301462000382578063d613ab1b14620003bc578063f14210a614620003f6578063fa95f5ce146200041b578063ffdd5cf1146200043357600080fd5b806390386bbf14620002a857806392a0f1c214620002c05780639820c73314620002e5578063a878aee61462000338578063ac994cfe146200035d57600080fd5b806357436b7111620000fa57806357436b71146200020a578063657f0fb2146200022f5780637a16f22e14620002465780637c7c0c70146200025e578063884492d7146200028357600080fd5b8063017b4154146200013c57806305627912146200017457806306b091f9146200019b578063215487ed14620001c05780633c9bfe5114620001e5575b600080fd5b3480156200014957600080fd5b50620001616200015b36600462000ec8565b62000479565b6040519081526020015b60405180910390f35b3480156200018157600080fd5b50620001996200019336600462000ec8565b62000506565b005b348015620001a857600080fd5b5062000199620001ba36600462000ee6565b6200059c565b348015620001cd57600080fd5b5062000199620001df36600462000f26565b62000617565b348015620001f257600080fd5b50620001616200020436600462000f5e565b62000685565b3480156200021757600080fd5b50620001616200022936600462000ec8565b62000721565b620001996200024036600462000f7d565b62000769565b3480156200025357600080fd5b5062000161620007ea565b3480156200026b57600080fd5b50620001996200027d36600462000fbe565b6200086a565b3480156200029057600080fd5b5062000161620002a236600462000ec8565b620009e9565b348015620002b557600080fd5b506200019962000a41565b348015620002cd57600080fd5b5062000199620002df3660046200101c565b62000b1f565b348015620002f257600080fd5b506200031f6200030436600462000ec8565b6005602052600090815260409020546001600160a01b031681565b6040516001600160a01b0390911681526020016200016b565b3480156200034557600080fd5b50620001996200035736600462000ec8565b62000b5f565b3480156200036a57600080fd5b50620001996200037c36600462000f7d565b62000c32565b3480156200038f57600080fd5b506200031f620003a136600462000ec8565b6004602052600090815260409020546001600160a01b031681565b348015620003c957600080fd5b506200031f620003db36600462000ec8565b6003602052600090815260409020546001600160a01b031681565b3480156200040357600080fd5b5062000199620004153660046200101c565b62000cda565b3480156200042857600080fd5b506200019962000d1a565b3480156200044057600080fd5b50620004586200045236600462000ec8565b62000d45565b6040805194855260208501939093529183015260608201526080016200016b565b6001546001600160a01b038281166000908152600360205260408082205490516370a0823160e01b81529083166004820152909291909116906370a08231906024015b602060405180830381865afa158015620004da573d6000803e3d6000fd5b505050506040513d601f19601f8201168201806040525081019062000500919062001036565b92915050565b336000908152600360205260409020546001600160a01b03166200052957600080fd5b33600090815260036020526040908190205490516302b13c8960e11b81526001600160a01b038381166004830152909116906305627912906024015b600060405180830381600087803b1580156200058057600080fd5b505af115801562000595573d6000803e3d6000fd5b5050505050565b33600090815260036020526040908190205490516306b091f960e01b81526001600160a01b03848116600483015260248201849052909116906306b091f9906044015b600060405180830381600087803b158015620005fa57600080fd5b505af11580156200060f573d6000803e3d6000fd5b505050505050565b336000908152600360205260409020546001600160a01b03166200063a57600080fd5b336000908152600360205260409081902054905163215487ed60e01b8152600b84900b60048201526001600160a01b0383811660248301529091169063215487ed90604401620005df565b6001600160a01b03818116600090815260046020818152604080842054878616855260039092528084205490516370a0823160e01b815290851692810192909252919291909116906370a0823190602401602060405180830381865afa158015620006f4573d6000803e3d6000fd5b505050506040513d601f19601f820116820180604052508101906200071a919062001036565b9392505050565b6002546001600160a01b038281166000908152600360205260408082205490516370a0823160e01b81529083166004820152909291909116906370a0823190602401620004bc565b6200077362000dec565b604051636275348d60e01b815260048101859052600b84900b60248201526001600160a01b0383811660448301529190911690636275348d9034906064016000604051808303818588803b158015620007cb57600080fd5b505af1158015620007e0573d6000803e3d6000fd5b5050505050505050565b600073dde0e8e6d3653614878bf5009edc317bc129fe2f6001600160a01b03166350d25bcd6040518163ffffffff1660e01b8152600401602060405180830381865afa1580156200083f573d6000803e3d6000fd5b505050506040513d601f19601f8201168201806040525081019062000865919062001036565b905090565b60006200087662000dec565b6040516323b872dd60e01b8152336004820152306024820152604481018790529091506001600160a01b038716906323b872dd906064016020604051808303816000875af1158015620008cd573d6000803e3d6000fd5b505050506040513d601f19601f82011682018060405250810190620008f3919062001050565b5060405163a9059cbb60e01b81526001600160a01b0382811660048301526024820187905287169063a9059cbb906044016020604051808303816000875af115801562000944573d6000803e3d6000fd5b505050506040513d601f19601f820116820180604052508101906200096a919062001050565b506040516378b35cf560e11b81526001600160a01b03878116600483015260248201869052600b85900b6044830152838116606483015282169063f166b9ea90608401600060405180830381600087803b158015620009c857600080fd5b505af1158015620009dd573d6000803e3d6000fd5b50505050505050505050565b6001600160a01b0380821660009081526005602090815260408083205481516350d25bcd60e01b81529151939416926350d25bcd926004808401939192918290030181865afa158015620004da573d6000803e3d6000fd5b33600090815260036020526040908190205460025491516370a0823160e01b81526001600160a01b03918216600482018190529263f14210a69216906370a0823190602401602060405180830381865afa15801562000aa4573d6000803e3d6000fd5b505050506040513d601f19601f8201168201806040525081019062000aca919062001036565b6040518263ffffffff1660e01b815260040162000ae991815260200190565b600060405180830381600087803b15801562000b0457600080fd5b505af115801562000b19573d6000803e3d6000fd5b50505050565b336000908152600360205260409081902054905163495078e160e11b8152600481018390526001600160a01b03909116906392a0f1c29060240162000565565b336000818152600360208181526040808420546001600160a01b0387811686526004808552838720549790965293909252516370a0823160e01b815290821692810183905291926306b091f992859291909116906370a0823190602401602060405180830381865afa15801562000bda573d6000803e3d6000fd5b505050506040513d601f19601f8201168201806040525081019062000c00919062001036565b6040516001600160e01b031960e085901b1681526001600160a01b039092166004830152602482015260440162000565565b336000908152600360205260409020546001600160a01b031662000c5557600080fd5b336000908152600360205260409081902054905163564ca67f60e11b815260048101859052600b84900b60248201526001600160a01b0383811660448301529091169063ac994cfe90606401600060405180830381600087803b15801562000cbc57600080fd5b505af115801562000cd1573d6000803e3d6000fd5b50505050505050565b33600090815260036020526040908190205490516378a1085360e11b8152600481018390526001600160a01b039091169063f14210a69060240162000565565b336000818152600360205260409020546001600160a01b0316906392a0f1c29062000aca9062000479565b600080546001600160a01b03838116835260036020526040808420549051632fe4a15f60e21b815290821660048201528392839283928392839283928392919091169063bf92857c9060240160c060405180830381865afa15801562000daf573d6000803e3d6000fd5b505050506040513d601f19601f8201168201806040525081019062000dd5919062001074565b949e939d50919b5092995090975050505050505050565b3360009081526003602052604081205481906001600160a01b031662000e7f57303360405162000e1c9062000e9d565b6001600160a01b03928316815291166020820152604001604051809103906000f08015801562000e50573d6000803e3d6000fd5b5033600090815260036020526040902080546001600160a01b0319166001600160a01b03831617905592915050565b5050336000908152600360205260409020546001600160a01b031690565b610ffb80620010c083390190565b80356001600160a01b038116811462000ec357600080fd5b919050565b60006020828403121562000edb57600080fd5b6200071a8262000eab565b6000806040838503121562000efa57600080fd5b62000f058362000eab565b946020939093013593505050565b8035600b81900b811462000ec357600080fd5b6000806040838503121562000f3a57600080fd5b62000f458362000f13565b915062000f556020840162000eab565b90509250929050565b6000806040838503121562000f7257600080fd5b62000f458362000eab565b60008060006060848603121562000f9357600080fd5b8335925062000fa56020850162000f13565b915062000fb56040850162000eab565b90509250925092565b600080600080600060a0868803121562000fd757600080fd5b62000fe28662000eab565b94506020860135935060408601359250620010006060870162000f13565b9150620010106080870162000eab565b90509295509295909350565b6000602082840312156200102f57600080fd5b5035919050565b6000602082840312156200104957600080fd5b5051919050565b6000602082840312156200106357600080fd5b815180151581146200071a57600080fd5b60008060008060008060c087890312156200108e57600080fd5b865195506020870151945060408701519350606087015192506080870151915060a08701519050929550929550929556fe6080604052600080546001600160a01b031990811673387d311e47e80b498169e6fb51d3193167d89f7d17909155600180548216736ae43d3271ff6888e7fc43fd7321a503ff7389511790556002805482167322064a21fee226d8ffb8818e7627d5ff6d0fc33a17905560038054821673cfa132e353cb4e398080b9700609bb008eceb12517905560048054821673c4bf5cbdabe595361438f8c6a187bdc330539c6017905560058054909116735b071b590a59395fe4025a0ccc1fcc931aac18301790553480156100d057600080fd5b50604051610ffb380380610ffb8339810160408190526100ef9161013c565b600680546001600160a01b039384166001600160a01b0319918216179091556007805492909316911617905561016f565b80516001600160a01b038116811461013757600080fd5b919050565b6000806040838503121561014f57600080fd5b61015883610120565b915061016660208401610120565b90509250929050565b610e7d8061017e6000396000f3fe6080604052600436106100915760003560e01c806392a0f1c21161005957806392a0f1c214610147578063ac994cfe14610167578063c45a015514610187578063f14210a6146101a7578063f166b9ea146101c757600080fd5b8063056279121461009657806306b091f9146100b8578063215487ed146100d85780636275348d146100f857806367e404ce1461010b575b600080fd5b3480156100a257600080fd5b506100b66100b1366004610bd8565b6101e7565b005b3480156100c457600080fd5b506100b66100d3366004610bfa565b610296565b3480156100e457600080fd5b506100b66100f3366004610c36565b61033d565b6100b6610106366004610c69565b6103ea565b34801561011757600080fd5b5060075461012b906001600160a01b031681565b6040516001600160a01b03909116815260200160405180910390f35b34801561015357600080fd5b506100b6610162366004610ca5565b61041f565b34801561017357600080fd5b506100b6610182366004610c69565b6105a7565b34801561019357600080fd5b5060065461012b906001600160a01b031681565b3480156101b357600080fd5b506100b66101c2366004610ca5565b6107a5565b3480156101d357600080fd5b506100b66101e2366004610cbe565b6108b7565b6006546001600160a01b03163314806101ff57503330145b61020857600080fd5b60035460025460408051600081526020810191829052635a5999e360e11b9091526001600160a01b039283169263b4b333c69261024f929116903090869060248101610d51565b6020604051808303816000875af115801561026e573d6000803e3d6000fd5b505050506040513d601f19601f820116820180604052508101906102929190610d8f565b5050565b6006546001600160a01b03163314806102ae57503330145b6102b757600080fd5b600154600754604051631a4ca37b60e21b81526001600160a01b0385811660048301526024820185905291821660448201529116906369328dec906064016020604051808303816000875af1158015610314573d6000803e3d6000fd5b505050506040513d601f19601f820116820180604052508101906103389190610db1565b505050565b6006546001600160a01b031633148061035557503330145b61035e57600080fd5b60035460025460408051600081526020810191829052630c03399160e01b9091526001600160a01b0392831692630c033991926103a79291169030908690889060248101610dca565b6020604051808303816000875af11580156103c6573d6000803e3d6000fd5b505050506040513d601f19601f820116820180604052508101906103389190610d8f565b6006546001600160a01b031633148061040257503330145b61040b57600080fd5b610414836108ed565b6103388383836105a7565b600480546007546040516323b872dd60e01b81526001600160a01b03918216938101939093523060248401526044830184905216906323b872dd906064016020604051808303816000875af115801561047c573d6000803e3d6000fd5b505050506040513d601f19601f820116820180604052508101906104a09190610d8f565b506004805460015460405163095ea7b360e01b81526001600160a01b039182169381019390935260248301849052169063095ea7b3906044016020604051808303816000875af11580156104f8573d6000803e3d6000fd5b505050506040513d601f19601f8201168201806040525081019061051c9190610d8f565b506001546004805460405163573ade8160e01b81526001600160a01b039182169281019290925260248201849052600260448301523060648301529091169063573ade81906084016020604051808303816000875af1158015610583573d6000803e3d6000fd5b505050506040513d601f19601f820116820180604052508101906102929190610db1565b6006546001600160a01b03163314806105bf57503330145b6105c857600080fd5b6001546004805460405163a415bcad60e01b81526001600160a01b039384169363a415bcad9361060693909116918891600291600091309101610e13565b600060405180830381600087803b15801561062057600080fd5b505af1158015610634573d6000803e3d6000fd5b50506004805460025460405163095ea7b360e01b81526001600160a01b03918216938101939093526024830188905216925063095ea7b391506044016020604051808303816000875af115801561068f573d6000803e3d6000fd5b505050506040513d601f19601f820116820180604052508101906106b39190610d8f565b506002546040516345977d0360e01b8152600481018590526001600160a01b03909116906345977d0390602401600060405180830381600087803b1580156106fa57600080fd5b505af115801561070e573d6000803e3d6000fd5b5050600354600254604080516000815260208101918290526370aa9b5b60e11b9091526001600160a01b03928316945063e15536b6935061075c929091169030908690889060248101610dca565b6020604051808303816000875af115801561077b573d6000803e3d6000fd5b505050506040513d601f19601f8201168201806040525081019061079f9190610d8f565b50505050565b6006546001600160a01b03163314806107bd57503330145b6107c657600080fd5b60055460005460405163095ea7b360e01b81526001600160a01b0391821660048201526024810184905291169063095ea7b3906044016020604051808303816000875af115801561081b573d6000803e3d6000fd5b505050506040513d601f19601f8201168201806040525081019061083f9190610d8f565b50600054600154600754604051630402806960e51b81526001600160a01b0392831660048201526024810185905290821660448201529116906380500d20906064015b600060405180830381600087803b15801561089c57600080fd5b505af11580156108b0573d6000803e3d6000fd5b5050505050565b6006546001600160a01b03163314806108cf57503330145b6108d857600080fd5b6108e284846109ef565b61079f8383836105a7565b600034116109415760405162461bcd60e51b815260206004820152601c60248201527f6e6f2076616c75652073656e7420696e207472616e73616374696f6e00000000604482015260640160405180910390fd5b6000805460015460405163474cf53d60e01b81526001600160a01b0391821660048201523060248201526044810193909352169063474cf53d9034906064016000604051808303818588803b15801561099957600080fd5b505af11580156109ad573d6000803e3d6000fd5b50506001546004805460405163a415bcad60e01b81526001600160a01b03938416965063a415bcad955061088294509216918691600291600091309101610e13565b6040516370a0823160e01b81523060048201526000906001600160a01b038416906370a0823190602401602060405180830381865afa158015610a36573d6000803e3d6000fd5b505050506040513d601f19601f82011682018060405250810190610a5a9190610db1565b60015460405163095ea7b360e01b81526001600160a01b0391821660048201526024810183905291925084169063095ea7b3906044016020604051808303816000875af1158015610aaf573d6000803e3d6000fd5b505050506040513d601f19601f82011682018060405250810190610ad39190610d8f565b5060015460405163617ba03760e01b81526001600160a01b03858116600483015260248201849052306044830152600060648301529091169063617ba03790608401600060405180830381600087803b158015610b2f57600080fd5b505af1158015610b43573d6000803e3d6000fd5b50506001546004805460405163a415bcad60e01b81526001600160a01b03938416955063a415bcad9450610b8593909116918791600291600091309101610e13565b600060405180830381600087803b158015610b9f57600080fd5b505af1158015610bb3573d6000803e3d6000fd5b50505050505050565b80356001600160a01b0381168114610bd357600080fd5b919050565b600060208284031215610bea57600080fd5b610bf382610bbc565b9392505050565b60008060408385031215610c0d57600080fd5b610c1683610bbc565b946020939093013593505050565b8035600b81900b8114610bd357600080fd5b60008060408385031215610c4957600080fd5b610c5283610c24565b9150610c6060208401610bbc565b90509250929050565b600080600060608486031215610c7e57600080fd5b83359250610c8e60208501610c24565b9150610c9c60408501610bbc565b90509250925092565b600060208284031215610cb757600080fd5b5035919050565b60008060008060808587031215610cd457600080fd5b610cdd85610bbc565b935060208501359250610cf260408601610c24565b9150610d0060608601610bbc565b905092959194509250565b6000815180845260005b81811015610d3157602081850181015186830182015201610d15565b506000602082860101526020601f19601f83011685010191505092915050565b6001600160a01b038581168252848116602083015283166040820152608060608201819052600090610d8590830184610d0b565b9695505050505050565b600060208284031215610da157600080fd5b81518015158114610bf357600080fd5b600060208284031215610dc357600080fd5b5051919050565b6001600160a01b038681168252858116602083015284166040820152600b83900b606082015260a060808201819052600090610e0890830184610d0b565b979650505050505050565b6001600160a01b0395861681526020810194909452604084019290925261ffff166060830152909116608082015260a0019056fea26469706673582212207ec95cc318aee6da33bd801ba024bae433985e2326b5ac49ed211706df43a39e64736f6c63430008130033a2646970667358221220ebdd46250d7d1ee3108f515326e3ce1df768572d9e619c2c2d3c45d053878efe64736f6c63430008130033",
    "linkReferences": {}
  },
  "methodIdentifiers": {
    "createStream(uint256,int96,address)": "ac994cfe",
    "deleteStream(address)": "05627912",
    "ethToGhoStream(uint256,int96,address)": "657f0fb2",
    "getETHValueDollars()": "7a16f22e",
    "getInfo(address)": "ffdd5cf1",
    "getSuppliedTotalETH(address)": "57436b71",
    "getSuppliedTotalTokens(address,address)": "3c9bfe51",
    "getTokenValueDollars(address)": "884492d7",
    "getTotalGHODebt(address)": "017b4154",
    "repayAllGHO()": "fa95f5ce",
    "repayGHO(uint256)": "92a0f1c2",
    "senderToGhoFlow(address)": "d613ab1b",
    "tokenToAToken(address)": "b9b44d30",
    "tokenToGhoStream(address,uint256,uint256,int96,address)": "7c7c0c70",
    "tokenToOracle(address)": "9820c733",
    "updateStream(int96,address)": "215487ed",
    "withdrawAllETH()": "90386bbf",
    "withdrawAllTokens(address)": "a878aee6",
    "withdrawETH(uint256)": "f14210a6",
    "withdrawTokens(address,uint256)": "06b091f9"
  },
  "id": 62
}